:100000000C9434000C943E000C943E000C943E0082
:100010000C943E000C943E000C943E000C943E0068
:100020000C943E000C943E000C943E000C943E0058
:100030000C943E000C943E000C943E000C943E0048
:100040000C943E000C943E000C943E000C943E0038
:100050000C943E000C943E000C943E000C943E0028
:100060000C943E000C943E0011241FBECFEFD8E04C
:10007000DEBFCDBF0E9440000C945D000C940000D8
:10008000259A57981F9BFECF85E090E02D9A2FEF81
:1000900039E648E1215030404040E1F700C000001F
:1000A0002D982FEF31EE44E0215030404040E1F7F1
:0E00B00000C00000019751F7E5CFF894FFCF94
:00000001FF
