:100000000C9472000C9493000C9493000C94930045
:100010000C9493000C9493000C9493000C94930014
:100020000C9493000C9493000C9493000C94930004
:100030000C9493000C9493000C9493000C949300F4
:100040000C9493000C9493000C9493000C949300E4
:100050000C9493000C9493000C9493000C949300D4
:100060000C9493000C9493000C9493000C949300C4
:100070000C9493000C9493000C9493000C949300B4
:100080000C9493000C9493000C9493000C949300A4
:100090000C9493000C9493000C9493000C94930094
:1000A0000C9493000C9493000C9493000C94930084
:1000B0000C9493000C9493000C9493000C94930074
:1000C0000C9493000C9493000C9493000C94930064
:1000D0000C9493000C9493000C9493000C94930054
:1000E0000C94930011241FBECFEFD1E2DEBFCDBF31
:1000F00000E00CBF12E0A0E0B2E0E4E9F1E000E0D3
:100100000BBF02C007900D92A030B107D9F712E0E3
:10011000A0E0B2E001C01D92A030B107E1F70E945B
:1001200095000C94C8000C940000279A20E030E061
:100130004FEF5FEF63E47DE0A0E9B1E01CC02F9AD0
:10014000CA010197F1F7CA010197F1F7CA010197B6
:10015000F1F7CB010197F1F72F98CA010197F1F759
:10016000CA010197F1F7CA010197F1F7CB01019795
:10017000F1F72F5F3F4F253031050CF380E197E217
:10018000FD013197F1F70197D9F720E030E0F3CF87
:04019000F894FFCF11
:00000001FF
